:100000000C943E000C9450000C9450000C94500042
:100010000C9450000C9450000C9450000C94500020
:100020000C9450000C9450000C9450000C94500010
:100030000C9450000C9450000C9450000C94500000
:100040000C9450000C949F000C9450000C945000A1
:100050000C9450000C9450000C9450000C945000E0
:100060000C9450000C9450000C9450000C945000D0
:100070000C9450000C9450000C94500011241FBE9E
:10008000CFEFD8E0DEBFCDBF21E0A0E0B1E001C0FE
:100090001D92A030B207E1F70E948B000C94B300D0
:1000A0000C94000080E00DC0982F9295907F909363
:1000B000ED00EEEEF0E001C01192E83FF105E0F353
:1000C0008F5F863088F3089581E08093D80086E0C2
:1000D0008093E20084E08093E30083E18093E40076
:1000E00081E008950E946400882341F00E9452003C
:1000F000E8EDF0E080818260808381E00895E1E6B0
:10010000F0E080E88083108284B1806684B985B194
:100110008F7985B908950E947F00789480E00E94CD
:1001200072000E949400FFCF86E086BDEEE6F0E00C
:1001300080818160808314BC83E085BD08951F9217
:100140000F920FB60F9211248F939F9386E086BD76
:1001500095B180E2892785B99F918F910F900FBE4D
:0A0160000F901F901895F894FFCF40
:00000001FF
