S00C0000424C34392E737265631D
S11300000C9450000C9462000C9462000C946200F6
S11300100C9462000C9462000C9462000C946200D4
S11300200C9462000C9462000C9462000C946200C4
S11300300C9462000C9462000C9462000C946200B4
S11300400C9462000C9462000C9462000C946200A4
S11300500C9462000C9462000C9462000C94620094
S11300600C9462000C9462000C9462000C94620084
S11300700C9462000C9462000C94620097028D034D
S113008077044505C8055806F20618084B09880A7E
S11300903E0BC10F2B1129107E10C50F30112B11EF
S11300A011241FBECFEFD8E0DEBFCDBF21E0A0E01A
S11300B0B1E001C01D92A231B207E1F70E945A0FCC
S11300C00C94CC130C940000CF93DF93CDB7DEB720
S11300D08BE790E02BE730E0F90120812062FC01FE
S11300E020838CE790E020E4FC0120838AE790E001
S11300F02AE730E0F90120812768FC012083000011
S1130100DF91CF910895CF93DF93CDB7DEB78CE71E
S113011090E025E4FC0120838AE790E02AE730E0C0
S1130120F90120812064FC01208300008AE790E02B
S1130130FC018081882F90E080749927892BB1F786
S113014088E790E0FC0180819181DF91CF9108954F
S1130150CF93DF93CDB7DEB78CE790E023E4FC01C7
S113016020838AE790E02AE730E0F90120812064C7
S1130170FC01208300008AE790E0FC018081882F45
S113018090E080749927892BB1F788E790E0FC010F
S113019080819181DF91CF910895CF93DF93CDB783
S11301A0DEB78CE790E028E4FC0120838AE790E046
S11301B02AE730E0F90120812064FC01208300005B
S11301C08AE790E0FC018081882F90E08074992771
S11301D0892BB1F788E790E0FC0180819181DF9160
S11301E0CF910895CF93DF93CDB7DEB78CE790E03E
S11301F029E4FC0120838AE790E02AE730E0F90152
S113020020812064FC01208300008AE790E0FC0147
S11302108081882F90E080749927892BB1F788E733
S113022090E0FC0180819181DF91CF910895CF937B
S1130230DF9300D01F92CDB7DEB719821DC08DEEBB
S113024090E029812295207FFC0120838EEE90E0AE
S11302509B838A8309C08A819B81FC0110828A81E5
S11302609B8101969B838A838A819B81883F910528
S113027090F389818F5F89838981863000F3000040
S11302800F900F900F90DF91CF910895CF93DF934C
S113029000D0CDB7DEB78DEE90E0FC0180818A837B
S11302A019821BC08DEE90E029812295207FFC01EC
S11302B020838FEE90E0FC018081882F90E0807C89
S11302C09927892B39F48DEE90E02A81FC01208353
S11302D089810CC089818F5F89838981863010F37D
S11302E08DEE90E02A81FC0120838FEF0F900F9018
S11302F0DF91CF910895CF93DF9300D0CDB7DEB7D0
S11303008FEE90E0FC018081882F90E0807C99271B
S1130310892B11F48FEF1CC08EEE90E0FC018081DC
S113032089838981807E8A838A81803231F08A81BF
S1130330803419F08A81803A11F48A8109C0898154
S11303408F718A838A81882311F08A8101C080E0B9
S11303500F900F90DF91CF910895CF93DF9300D04A
S11303601F92CDB7DEB79B838A83198210C089811F
S1130370882F90E02A813B81820F931F2AEF30E07F
S1130380F9012081FC01208389818F5F8983898120
S1130390282F30E08FEE90E0FC018081882F90E0E0
S11303A08F7099272817390714F300000F900F90C6
S11303B00F90DF91CF910895CF93DF931F92CDB724
S11303C0DEB7898388ED90E021E0FC01208382EE92
S11303D090E026E0FC01208383EE90E024E0FC0121
S11303E0208384EE90E023E1FC01208381E00F90E0
S11303F0DF91CF910895CF93DF931F92CDB7DEB7EE
S1130400898389810E94DC01882311F480E00CC077
S11304100E94170188ED90E028ED30E0F901208179
S11304202260FC01208381E00F90DF91CF91089539
S1130430CF93DF93CDB7DEB72A970FB6F894DEBF1C
S11304400FBECDBF9A87898789859A85FC018181F2
S11304508C3039F589859A85FC0181858036D9F4FB
S11304608DEE90E029853A85F90120812295207F3F
S1130470FC0120838FEE90E02FEE30E0F901208123
S11304802F73FC0120838EEE90E0FC01108289859D
S11304909A85FC01108289859A85FC0111860C9449
S11304A0A40C0E9446018C838C818F3F11F40C9420
S11304B09D0C89859A8520E6FC01218789859A858A
S11304C02C81FC0120838DEE90E02C812295207FED
S11304D0FC0120838EEE90E09B838A8309C08A818D
S11304E09B81FC0110828A819B8101969B838A8374
S11304F08A819B81883F910590F389859A85FC01C7
S11305008181882F90E0092E000CAA0BBB0B41E0DF
S113051050E02AE030E0841B950B2817390710F4CB
S11305200C94970C825C9F4FFC010C94AC1389854E
S11305309A85FC018385882309F469C083EF90E0E0
S113054029853A852E5F3F4F2D5F3F4FF90120816A
S1130550422F440F440F440F29853A852E5F3F4FA5
S11305602E5F3F4FF9012081229526952770240F95
S1130570FC01208382EF90E029853A852E5F3F4F6E
S11305802E5F3F4FF9012081422F440F440F440F47
S113059029853A852E5F3F4F2F5F3F4FF901208118
S11305A0229526952770240FFC01208381EF90E08B
S11305B029853A852E5F3F4F2F5F3F4FF9012081F8
S11305C0422F440F440F440F29853A852E5F3F4F35
S11305D0F9012081229526952770240FFC012083A0
S11305E080EF90E029853A852E5F3F4FF901208105
S11305F0220F220F220FFC0120838FEE90E02FEEBA
S113060030E0F90120812061FC01208330C083EFB8
S113061090E029853A852E5F3F4F2F5F3F4FF901C8
S11306202081422F4295440F407E29853A852E5FD2
S11306303F4FF9012081269526952695240FFC012C
S1130640208382EF90E029853A852E5F3F4FF901A0
S113065020812295220F207EFC0120838FEE90E0E2
S11306602FEE30E0F90120812F7EFC0120831982D6
S113067013C08AEF90E029853A85F90147815085B6
S11306802981222F30E0240F351FF9012081FC013C
S1130690208389818F5F898389859A85FC0196816E
S11306A08981891730F389859A85FC01828588239D
S11306B051F080EF90E020EF30E0F90120812460D8
S11306C0FC01208309C080EF90E020EF30E0F901C5
S11306D020812B7FFC0120838FEE90E02FEE30E011
S11306E0F901408129853A85F9012681242BFC01F1
S11306F020838FEE90E02FEE30E0F90120812F73FC
S1130700FC0120838FEE90E02FEE30E0F901208190
S11307102064FC0120830C94A40C89859A85FC0137
S11307208385882309F469C083EF90E029853A859D
S11307302E5F3F4F2D5F3F4FF9012081422F440F21
S1130740440F440F29853A852E5F3F4F2E5F3F4F5C
S1130750F9012081229526952770240FFC0120831E
S113076082EF90E029853A852E5F3F4F2E5F3F4F01
S1130770F9012081422F440F440F440F29853A8503
S11307802E5F3F4F2F5F3F4FF90120812295269521
S11307902770240FFC01208381EF90E029853A859E
S11307A02E5F3F4F2F5F3F4FF9012081422F440FAF
S11307B0440F440F29853A852E5F3F4FF90120816C
S11307C0229526952770240FFC01208380EF90E06A
S11307D029853A852E5F3F4FF9012081220F220F90
S11307E0220FFC0120838FEE90E02FEE30E0F90120
S11307F020812061FC01208330C083EF90E02985B3
S11308003A852E5F3F4F2F5F3F4FF9012081422FE2
S11308104295440F407E29853A852E5F3F4FF9016A
S11308202081269526952695240FFC01208382EFAE
S113083090E029853A852E5F3F4FF901208122956A
S1130840220F207EFC0120838FEE90E02FEE30E01B
S1130850F90120812F7EFC012083198213C08AEFC5
S113086090E029853A85F901478150852981222F15
S113087030E0240F351FF9012081FC012083898198
S11308808F5F898389859A85FC019681898189177F
S113089030F389859A85FC01128680EF90E020EF81
S11308A030E0F90120812B7FFC0120838FEE90E062
S11308B02FEE30E0F901408129853A85F90126813E
S11308C0242BFC0120838FEE90E02FEE30E0F90121
S11308D020812F73FC0120838FEE90E02FEE30E017
S11308E0F90120812064FC0120830C94A40C8985E7
S11308F09A85FC018385882309F469C083EF90E01D
S113090029853A852E5F3F4F2D5F3F4FF9012081A6
S1130910422F440F440F440F29853A852E5F3F4FE1
S11309202E5F3F4FF9012081229526952770240FD1
S1130930FC01208382EF90E029853A852E5F3F4FAA
S11309402E5F3F4FF9012081422F440F440F440F83
S113095029853A852E5F3F4F2F5F3F4FF901208154
S1130960229526952770240FFC01208381EF90E0C7
S113097029853A852E5F3F4F2F5F3F4FF901208134
S1130980422F440F440F440F29853A852E5F3F4F71
S1130990F9012081229526952770240FFC012083DC
S11309A080EF90E029853A852E5F3F4FF901208141
S11309B0220F220F220FFC0120838FEE90E02FEEF6
S11309C030E0F90120812061FC01208330C083EFF5
S11309D090E029853A852E5F3F4F2F5F3F4FF90105
S11309E02081422F4295440F407E29853A852E5F0F
S11309F03F4FF9012081269526952695240FFC0169
S1130A00208382EF90E029853A852E5F3F4FF901DC
S1130A1020812295220F207EFC0120838FEE90E01E
S1130A202FEE30E0F90120812F7EFC01208389859F
S1130A309A8521E0FC01228780EF90E020EF30E0EE
S1130A40F90120812460FC0120838FEE90E02FEED9
S1130A5030E0F901408129853A85F9012681242B6A
S1130A60FC0120838FEE90E02FEE30E0F90120812D
S1130A702F73FC0120838FEE90E02FEE30E0F9011C
S1130A8020812064FC0120835FC71D821E821F8297
S1130A90188627EF30E0CE0105960396FC0180818D
S1130AA0482F440F440F440FCE0105960296FC01D3
S1130AB08081829586958770840FF901808326EF63
S1130AC030E0CE0105960296FC018081482F440F48
S1130AD0440F440FCE0105960196FC018081829556
S1130AE086958770840FF901808325EF30E0CE016D
S1130AF005960196FC018081482F440F440F440F52
S1130B00CE010596FC018081829586958770840FBD
S1130B10F901808384EF90E09E012B5F3F4FF90140
S1130B202081220F220F220FFC0120838FEE90E000
S1130B302FEE30E0F901408129853A85F9012681BB
S1130B40242BFC01208384EF90E024EF30E0F901B2
S1130B5020812B7FFC01208384EF90E024EF30E0A0
S1130B60F90120812E7FFC0120838FEE90E02FEE8F
S1130B7030E0F90120812F73FC0120838FEE90E097
S1130B802FEE30E0F90120812068FC012083DCC6CF
S1130B901D821E821F82188627EF30E0CE01059643
S1130BA00396FC018081482F440F440F440FCE016B
S1130BB005960296FC018081829586958770840F44
S1130BC0F901808326EF30E0CE0105960296FC0100
S1130BD08081482F440F440F440FCE01059601969F
S1130BE0FC018081829586958770840FF90180834A
S1130BF025EF30E0CE0105960196FC018081482F57
S1130C00440F440F440FCE010596FC018081829568
S1130C1086958770840FF901808384EF90E09E01AC
S1130C202B5F3F4FF9012081220F220F220FFC017D
S1130C3020838FEE90E02FEE30E0F901408129858A
S1130C403A85F9012681242BFC01208389859A8524
S1130C50FC01128684EF90E024EF30E0F90120815A
S1130C602460FC01208380EF90E020EF30E0F90164
S1130C7020812B7FFC01208384EF90E024EF30E07F
S1130C80F90120812E7FFC0120838FEE90E02FEE6E
S1130C9030E0F90120812F73FC0120838FEE90E076
S1130CA02FEE30E0F90120812068FC0120834CC63E
S1130CB01D821E821F82188627EF30E0CE01059622
S1130CC00396FC018081482F440F440F440FCE014A
S1130CD005960296FC018081829586958770840F23
S1130CE0F901808326EF30E0CE0105960296FC01DF
S1130CF08081482F440F440F440FCE01059601967E
S1130D00FC018081829586958770840FF901808328
S1130D1025EF30E0CE0105960196FC018081482F35
S1130D20440F440F440FCE010596FC018081829547
S1130D3086958770840FF901808384EF90E09E018B
S1130D402B5F3F4FF9012081220F220F220FFC015C
S1130D5020838FEE90E02FEE30E0F9014081298569
S1130D603A85F9012681242BFC01208389859A8503
S1130D7021E0FC01228784EF90E024EF30E0F901C8
S1130D8020812460FC01208380EF90E020EF30E09C
S1130D90F90120812460FC0120838FEE90E02FEE86
S1130DA030E0F90120812F7DFC01208384EF90E065
S1130DB024EF30E0F90120812E7FFC0120838FEEA7
S1130DC090E02FEE30E0F90120812F73FC012083A5
S1130DD08FEE90E02FEE30E0F90120812068FC01D5
S1130DE02083B2C589859A85FC018385882309F40B
S1130DF069C083EF90E029853A852E5F3F4F2D5FD0
S1130E003F4FF9012081422F440F440F440F29859D
S1130E103A852E5F3F4F2E5F3F4FF9012081229587
S1130E2026952770240FFC01208382EF90E029850A
S1130E303A852E5F3F4F2E5F3F4FF9012081422FAD
S1130E40440F440F440F29853A852E5F3F4F2F5F8F
S1130E503F4FF9012081229526952770240FFC012C
S1130E60208381EF90E029853A852E5F3F4F2F5FE5
S1130E703F4FF9012081422F440F440F440F29852D
S1130E803A852E5F3F4FF9012081229526952770E0
S1130E90240FFC01208380EF90E029853A852E5FA2
S1130EA03F4FF9012081220F220F220FFC012083E2
S1130EB08FEE90E02FEE30E0F90120812061FC01FB
S1130EC0208330C083EF90E029853A852E5F3F4F21
S1130ED02F5F3F4FF9012081422F4295440F407EFE
S1130EE029853A852E5F3F4FF90120812695269565
S1130EF02695240FFC01208382EF90E029853A8512
S1130F002E5F3F4FF90120812295220F207EFC01A4
S1130F1020838FEE90E02FEE30E0F90120812F7EC8
S1130F20FC0120838FEF9FEFDC018D839E83AF83D1
S1130F30B88727EF30E0CE0105960396FC01808147
S1130F40482F440F440F440FCE0105960296FC012E
S1130F508081829586958770840FF901808326EFBE
S1130F6030E0CE0105960296FC018081482F440FA3
S1130F70440F440FCE0105960196FC0180818295B1
S1130F8086958770840FF901808325EF30E0CE01C8
S1130F9005960196FC018081482F440F440F440FAD
S1130FA0CE010596FC018081829586958770840F19
S1130FB0F901808384EF90E09E012B5F3F4FF9019C
S1130FC02081220F220F220FFC0120838FEE90E05C
S1130FD02FEE30E0F901408129853A85F901268117
S1130FE0242BFC01208384EF90E024EF30E0F9010E
S1130FF020812B7FFC01208384EF90E024EF30E0FC
S1131000F90120812160FC0120838FEE90E02FEE16
S113101030E0F90120812F73FC0120838FEE90E0F2
S11310202FEE30E0F90120812068FC0120838CC47C
S113103089859A85FC018385882309F469C083EF37
S113104090E029853A852E5F3F4F2D5F3F4FF90190
S11310502081422F440F440F440F29853A852E5F87
S11310603F4F2E5F3F4FF90120812295269527702F
S1131070240FFC01208382EF90E029853A852E5FBE
S11310803F4F2E5F3F4FF9012081422F440F440F01
S1131090440F29853A852E5F3F4F2F5F3F4FF9015B
S11310A02081229526952770240FFC01208381EF4F
S11310B090E029853A852E5F3F4F2F5F3F4FF9011E
S11310C02081422F440F440F440F29853A852E5F17
S11310D03F4FF9012081229526952770240FFC01AA
S11310E0208380EF90E029853A852E5F3F4FF901F8
S11310F02081220F220F220FFC0120838FEE90E02B
S11311002FEE30E0F90120812061FC01208330C002
S113111083EF90E029853A852E5F3F4F2F5F3F4F45
S1131120F9012081422F4295440F407E29853A855A
S11311302E5F3F4FF9012081269526952695240F91
S1131140FC01208382EF90E029853A852E5F3F4F92
S1131150F90120812295220F207EFC0120838FEE4D
S113116090E02FEE30E0F90120812F7EFC012083F6
S11311708FEF9FEFDC018D839E83AF83B88727EFCA
S113118030E0CE0105960396FC018081482F440F80
S1131190440F440FCE0105960296FC01808182958E
S11311A086958770840FF901808326EF30E0CE01A5
S11311B005960296FC018081482F440F440F440F8A
S11311C0CE0105960196FC018081829586958770F3
S11311D0840FF901808325EF30E0CE010596019656
S11311E0FC018081482F440F440F440FCE01059623
S11311F0FC018081829586958770840FF901808334
S113120084EF90E09E012B5F3F4FF9012081220F74
S1131210220F220FFC0120838FEE90E02FEE30E0AE
S1131220F901408129853A85F9012681242BFC01A5
S1131230208389859A85FC01128684EF90E024EF4F
S113124030E0F90120812460FC01208380EF90E0EC
S113125020EF30E0F90120812B7FFC01208384EF13
S113126090E024EF30E0F90120812160FC0120832B
S11312708FEE90E02FEE30E0F90120812F73FC0116
S113128020838FEE90E02FEE30E0F901208120687A
S1131290FC01208359C389859A85FC0183858823B1
S11312A009F469C083EF90E029853A852E5F3F4FAA
S11312B02D5F3F4FF9012081422F440F440F440F0B
S11312C029853A852E5F3F4F2E5F3F4FF9012081DC
S11312D0229526952770240FFC01208382EF90E04D
S11312E029853A852E5F3F4F2E5F3F4FF9012081BC
S11312F0422F440F440F440F29853A852E5F3F4FF8
S11313002F5F3F4FF9012081229526952770240FE6
S1131310FC01208381EF90E029853A852E5F3F4FC1
S11313202F5F3F4FF9012081422F440F440F440F98
S113133029853A852E5F3F4FF90120812295269514
S11313402770240FFC01208380EF90E029853A85E3
S11313502E5F3F4FF9012081220F220F220FFC0143
S113136020838FEE90E02FEE30E0F90120812061A0
S1131370FC01208330C083EF90E029853A852E5FFD
S11313803F4F2F5F3F4FF9012081422F4295440F79
S1131390407E29853A852E5F3F4FF90120812695AD
S11313A026952695240FFC01208382EF90E0298561
S11313B03A852E5F3F4FF90120812295220F207E2E
S11313C0FC0120838FEE90E02FEE30E0F9012081C4
S11313D02F7EFC0120838FEF9FEFDC018D839E83A2
S11313E0AF83B88727EF30E0CE0105960396FC0162
S11313F08081482F440F440F440FCE010596029676
S1131400FC018081829586958770840FF901808321
S113141026EF30E0CE0105960296FC018081482F2C
S1131420440F440F440FCE0105960196FC018081C0
S1131430829586958770840FF901808325EF30E0CB
S1131440CE0105960196FC018081482F440F440F7C
S1131450440FCE010596FC018081829586958770A4
S1131460840FF901808384EF90E09E012B5F3F4F4E
S1131470F9012081220F220F220FFC0120838FEE1D
S113148090E02FEE30E0F901408129853A85F90199
S11314902681242BFC01208389859A8521E0FC0187
S11314A0228784EF90E024EF30E0F901208124606A
S11314B0FC01208380EF90E020EF30E0F9012081EF
S11314C02460FC0120838FEE90E02FEE30E0F901E0
S11314D020812F7DFC01208384EF90E024EF30E015
S11314E0F90120812160FC0120838FEE90E02FEE32
S11314F030E0F90120812F73FC0120838FEE90E00E
S11315002FEE30E0F90120812068FC0120831CC209
S1131510198213C08AEF90E029853A85F901478141
S113152050852981222F30E0240F351FF9012081B5
S1131530FC01208389818F5F898389859A85FC01D9
S113154096818981891730F31D821E821F82188635
S113155027EF30E0CE0105960396FC018081482FE9
S1131560440F440F440FCE0105960296FC0180817E
S1131570829586958770840FF901808326EF30E089
S1131580CE0105960296FC018081482F440F440F3A
S1131590440FCE0105960196FC01808182958695C3
S11315A08770840FF901808325EF30E0CE01059622
S11315B00196FC018081482F440F440F440FCE0153
S11315C00596FC018081829586958770840FF901C8
S11315D0808384EF90E09E012B5F3F4FF9012081CF
S11315E0220F220F220FFC0120838FEE90E02FEEBA
S11315F030E0F901408129853A85F9012681242BBF
S1131600FC01208389859A8521E0FC01228784EFEF
S113161090E024EF30E0F90120812460FC01208374
S113162080EF90E020EF30E0F90120812460FC019C
S113163020838FEE90E02FEE30E0F90120812062CC
S1131640FC01208384EF90E024EF30E0F901208155
S11316502E7FFC0120838FEE90E02FEE30E0F90125
S113166020812F73FC0120838FEE90E02FEE30E079
S1131670F90120812068FC01208366C189859A854F
S1131680FC018385882309F469C083EF90E02985F0
S11316903A852E5F3F4F2D5F3F4FF9012081422F46
S11316A0440F440F440F29853A852E5F3F4F2E5F28
S11316B03F4FF9012081229526952770240FFC01C4
S11316C0208382EF90E029853A852E5F3F4F2E5F7D
S11316D03F4FF9012081422F440F440F440F2985C5
S11316E03A852E5F3F4F2F5F3F4FF90120812295AE
S11316F026952770240FFC01208381EF90E0298533
S11317003A852E5F3F4F2F5F3F4FF9012081422FD3
S1131710440F440F440F29853A852E5F3F4FF9014A
S11317202081229526952770240FFC01208380EFC9
S113173090E029853A852E5F3F4FF9012081220FE1
S1131740220F220FFC0120838FEE90E02FEE30E079
S1131750F90120812061FC01208330C083EF90E0F7
S113176029853A852E5F3F4F2F5F3F4FF901208136
S1131770422F4295440F407E29853A852E5F3F4F84
S1131780F9012081269526952695240FFC012083B6
S113179082EF90E029853A852E5F3F4FF901208141
S11317A02295220F207EFC0120838FEE90E02FEE05
S11317B030E0F90120812F7EFC012083198213C0BF
S11317C08AEF90E029853A85F9014781508529817E
S11317D0222F30E0240F351FF9012081FC012083E2
S11317E089818F5F898389859A85FC0196818981A6
S11317F0891730F38FEF9FEFDC018D839E83AF83D6
S1131800B88727EF30E0CE0105960396FC0180816E
S1131810482F440F440F440FCE0105960296FC0155
S11318208081829586958770840FF901808326EFE5
S113183030E0CE0105960296FC018081482F440FCA
S1131840440F440FCE0105960196FC0180818295D8
S113185086958770840FF901808325EF30E0CE01EF
S113186005960196FC018081482F440F440F440FD4
S1131870CE010596FC018081829586958770840F40
S1131880F901808384EF90E09E012B5F3F4FF901C3
S11318902081220F220F220FFC0120838FEE90E083
S11318A02FEE30E0F901408129853A85F90126813E
S11318B0242BFC01208389859A8521E0FC01228761
S11318C084EF90E024EF30E0F90120812460FC01F2
S11318D0208380EF90E020EF30E0F9012081246044
S11318E0FC0120838FEE90E02FEE30E0F90120819F
S11318F02062FC01208384EF90E024EF30E0F901C2
S113190020812160FC0120838FEE90E02FEE30E0F7
S1131910F90120812F73FC0120838FEE90E02FEEDC
S113192030E0F90120812068FC0120830DC0898505
S11319309A85FC011186000007C089859A852FE1EC
S1131940FC0121878FEF01C080E02A960FB6F8943E
S1131950DEBF0FBECDBFDF91CF910895CF93DF934C
S113196000D000D0CDB7DEB79C838B838B819C8164
S1131970FC0181858A838A81882331F08A818F31B1
S113198019F08A818F3F11F482E014C18DEE90E04A
S11319902B813C81F90120812295207FFC01208349
S11319A00E947B018A838A81882F90E0803291058E
S11319B089F0813291051CF4892B49F0E5C080340B
S11319C0910509F4CDC0803A910521F0DDC081E094
S11319D08983EFC08FEE90E0FC018081282F2F7067
S11319E08B819C81FC0126838B819C81FC018781F6
S11319F090850E94AD0180EF90E0FC018081882FEA
S1131A0090E084709927959587959595879521E021
S1131A10892B09F420E08B819C81FC0122878FEEC5
S1131A2090E0FC018081882F90E080719927959542
S1131A308795959587959595879595958795892B00
S1131A4009F454C08B819C8121E0FC0123878B81A4
S1131A509C810296039623EF30E0F90120812695BC
S1131A6026952695FC0120838B819C810296029603
S1131A7022EF30E0F9012081422F469546954695A4
S1131A8023EF30E0F90120812295220F207E240FDC
S1131A90FC0120838B819C810296019621EF30E02A
S1131AA0F9012081422F46954695469522EF30E074
S1131AB0F90120812295220F207E240FFC0120832E
S1131AC08B819C81029620EF30E0F9012081422F26
S1131AD046954695469521EF30E0F90120812295FF
S1131AE0220F207E240FFC01208326C08B819C8141
S1131AF0FC0113868B819C810296019623EF30E0D2
S1131B00F9012081229526952770FC0120838B8181
S1131B109C81029622EF30E0F9012081422F429508
S1131B204695477023EF30E0F9012081220F220F00
S1131B30220F240FFC0120838B819C812A81FC01CC
S1131B4021878FEE90E02FEE30E0F90120812F7392
S1131B50FC0120838EEE90E0FC011082198229C0E2
S1131B608B819C812A81FC0121878FEE90E02FEEEE
S1131B7030E0F90120812F73FC0120838EEE90E088
S1131B80FC011082198215C08B819C812A81FC0181
S1131B9021878FEE90E02FEE30E0F90120812F7342
S1131BA0FC0120838EEE90E0FC01108282E08983A8
S1131BB0000089810F900F900F900F90DF91CF91CB
S1131BC00895CF93DF93CDB7DEB781E690E020E8A8
S1131BD0FC01208381E690E0FC01108284E290E025
S1131BE024E230E0F90120812866FC01208385E2AB
S1131BF090E025E230E0F90120812F7DFC01208373
S1131C0085E290E025E230E0F90120812F7BFC01A0
S1131C10208385E290E025E230E0F9012081277FEE
S1131C20FC01208384E290E024E230E0F901208189
S1131C302268FC0120838AE290E02AE230E0F90184
S1131C4020812062FC0120838BE290E02BE230E0D3
S1131C50F90120812062FC01208387E290E027E2E1
S1131C6030E0F90120812260FC0120830000DF9133
S1131C70CF910895CF93DF93CDB7DEB780E098E797
S1131C800E948B11DF91CF910895CF93DF93CDB74D
S1131C90DEB78DE996E50E948B110000DF91CF91AC
S1131CA00895CF93DF93CDB7DEB788E896E50E9419
S1131CB08B110000DF91CF910895CF93DF93CDB7BF
S1131CC0DEB780E990E023E0FC0120830000DF918F
S1131CD0CF910895CF93DF9300D000D000D0CDB73B
S1131CE0DEB79A8389837C836B835E834D832D81E6
S1131CF03E8189819A818217930748F42D813E8120
S1131D008B819C812817390710F481E001C080E0A1
S1131D1026960FB6F894DEBF0FBECDBFDF91CF91EC
S1131D200895CF93DF9300D0CDB7DEB79A8389832C
S1131D300E94CD009C0189819A81FC01318320831A
S1131D400E94F2009C0189819A81FC0135832483DD
S1131D500E9483009C0189819A81FC01318720873C
S1131D600E94A8009C0140E050E088E893E1DC0177
S1131D700E94C113DC01CB01072E7AE0B695A7952A
S1131D80979587957A95D1F7702D9C0189819A81D1
S1131D90FC013387228789819A81FC0180859185A2
S1131DA0AC0160EB72E084EC91E00E946A0E282F93
S1131DB089819A81FC01248789819A81FC01828529
S1131DC0938529EC34E0281B390B89819A81FC0125
S1131DD03687258789819A81FC01808591852981AF
S1131DE03A81F90125853685820F931F9C0140E0D5
S1131DF050E084EB9FE5DC010E94C113DC01CB01C0
S1131E00072E7AE0B695A795979587957A95D1F799
S1131E10702D9C0189819A81FC01308B27870000F9
S1131E200F900F90DF91CF910895CF92DF92EF92B0
S1131E30FF92CF93DF9300D0CDB7DEB79A83898327
S1131E4089819A81CC01A0E0B0E0BC01CD010E945F
S1131E50B1126B017C0180910F0190911001092E48
S1131E60000CAA0BBB0BBC01CD010E94B312DC0118
S1131E70CB019C01AD01C701B6010E941012DC0127
S1131E80CB0120E030E040E854E4BC01CD010E94E5
S1131E903F13DC01CB01BC01CD010E948212DC01A5
S1131EA0CB010F900F90DF91CF91FF90EF90DF90D7
S1131EB0CF900895CF93DF93CDB7DEB7A0970FB639
S1131EC0F894DEBF0FBECDBF0E94E10D81E00E94F9
S1131ED0FB0182E390E00E94D8110E9464000E94FA
S1131EE05D0E0E947A110E94321178941A86198626
S1131EF01A8219821C821B821E821D8280E891E054
S1131F00A0E0B0E08F8B988FA98FBA8F88E08B8F79
S1131F1082E08E8B0E943A0E9C878B878B859C85F2
S1131F208F3728E2920759F08F3FE8E29E0721F0AD
S1131F308535984241F00BC01092110108C081E030
S1131F408093110104C086E080931101000080E0B9
S1131F5091E00E94910E80911101882F90E0092E4A
S1131F60000CAA0BBB0B40E050E026E030E0841BE1
S1131F70950B2817390758F3875B9F4FFC010C9486
S1131F80AC1384E0809311016CC11E821D820E94F7
S1131F90450E2FC00E94CD009C0180910D019091AF
S1131FA00E01820F931F2091020130910301820FD1
S1131FB0931F90930301809302010E94F2009C01FD
S1131FC080910D0190910E01820F931F20910601C3
S1131FD030910701820F931F9093070180930601AC
S1131FE08AE090E00E94D8118D819E8101969E83A3
S1131FF08D838D819E810A976CF28091020190916C
S113200003019C01ADECBCEC0E94B213969587953C
S113201096958795969587959093030180930201F1
S113202080910601909107019C01ADECBCEC0E94EB
S1132030B2139695879596958795969587959093DF
S11320400701809306010E94510E82E080931101E2
S113205008C18CED95E09C838B838B819C810E94CD
S1132060150F9A87898789859A850E9450118091D6
S113207008019091090120910D0130910E01820F08
S1132080931F9C0140E050E085EF90E0DC010E944A
S1132090C113DC01CB01072E7AE0B695A79597957D
S11320A087957A95D1F7702D898B8FE08A8B82E0A2
S11320B08B8B8FE08C8B18861F8217C00000CE019B
S11320C045960E9418028823D1F70000CE01459658
S11320D00E94AE0C8130D1F38AE090E00E94D811C6
S11320E08F819885019698878F838F819885853F06
S11320F0914024F383E080931101B3C080E49FE115
S11321009C838B8380E091E00E94910E8B819C8163
S11321100E94150F9A87898780910801909109017F
S113212020910D0130910E01820F931F9C0140E01C
S113213050E085EF90E0DC010E94C113DC01CB018B
S1132140072E7AE0B695A795979587957A95D1F756
S1132150702D898B82E08B8B81E08C8B72C089819E
S11321609A81892BD9F149815A81CA01969587951B
S113217096958795969587959C01A5ECB0E20E946B
S1132180B213929582958F7089279F70892768EE84
S113219073E0869F9001879F300D969F300D112428
S11321A0CA01821B930B892BC9F48B819C818057B4
S11321B09E4F9C838B8380E091E00E94910E8B81E3
S11321C09C81893C924320F088EC92E39C838B832E
S11321D08B819C810E94150F9A8789878B819C81B2
S11321E0CC01A0E0B0E0BC01CD010E94B112DC0141
S11321F0CB012AE037ED43E25CE3BC01CD010E9450
S11322003F13DC01CB01BC01CD010E948212DC0131
S1132210CB018A8B8AE090E00E94D81189819A814F
S11322200A969A8389830000CE0145960E9418027B
S11322308823D1F70000CE0145960E94AE0C813070
S1132240D1F38B819C81883C924308F488CF85E04C
S11322508093110106C08AE090E09A87898701C0C3
S1132260000075CECF93DF93CDB7DEB780E890E062
S113227020E830E0F90120812362FC01208381E819
S113228090E021E830E0F90120812B60FC012083FB
S113229080E090E00E9450110000DF91CF910895FA
S11322A0CF93DF9300D0CDB7DEB79A8389838AE8D2
S11322B090E029813A81FC013183208300000F9052
S11322C00F90DF91CF910895CF93DF9300D0CDB7D6
S11322D0DEB789836A838981882F90E0382F22278B
S11322E08A81882F90E0822B932B0F900F90DF919F
S11322F0CF910895CF93DF93CDB7DEB78CE490E010
S11323002CE430E0F90120812765FC0120830000E2
S1132310DF91CF910895CF93DF9300D000D0CDB754
S1132320DEB79C838B838BE290E02BE230E0F901F3
S113233020812F7DFC0120838EE490E02B813C8161
S1132340232F3327FC01208300008DE490E0FC015F
S113235080818823D4F78EE490E0FC018081898316
S113236089818F7389838EE490E02B81FC01208323
S113237000008DE490E0FC0180818823D4F78EE492
S113238090E0FC0180818A838BE290E02BE230E0D4
S1132390F90120812062FC0120836A8189810E94E5
S11323A064110F900F900F900F90DF91CF910895CB
S11323B0CF93DF9300D0CDB7DEB79A83898386E4C9
S11323C090E026E0FC01208385E490E025E430E001
S11323D0F90120812360FC012083000085E390E063
S11323E0FC018081882F90E081709927892BB1F3BB
S11323F085E390E025E330E0F90120812160FC01D0
S1132400208389819A8101979A83898389819A811A
S1132410892BA9F600000F900F90DF91CF910895BA
S11324200E9424120C9405130E94FE1258F00E947C
S1132430F71240F029F45F3F29F00C94EE12511189
S11324400C9439130C94F4120E94161368F3992314
S1132450B1F3552391F3951B550BBB27AA2762179C
S11324607307840738F09F5F5F4F220F331F441FA9
S1132470AA1FA9F335D00E2E3AF0E0E832D09150DD
S11324805040E695001CCAF72BD0FE2F29D0660FCA
S1132490771F881FBB1F261737074807AB07B0E80D
S11324A009F0BB0B802DBF01FF2793585F4F3AF013
S11324B09E3F510578F00C94EE120C9439135F3F53
S11324C0E4F3983ED4F3869577956795B795F79599
S11324D09F5FC9F7880F911D9695879597F9089581
S11324E0E1E0660F771F881FBB1F6217730784071D
S11324F0BA0720F0621B730B840BBA0BEE1F88F72C
S1132500E09508950E941E1388F09F5798F0B92F04
S11325109927B751B0F0E1F0660F771F881F991F14
S11325201AF0BA95C9F714C0B13091F00E9438136B
S1132530B1E008950C943813672F782F8827B85F7B
S113254039F0B93FCCF3869577956795B395D9F76C
S11325503EF490958095709561957F4F8F4F9F4F76
S11325600895E89409C097FB3EF490958095709582
S113257061957F4F8F4F9F4F9923A9F0F92F96E9CB
S1132580BB279395F695879577956795B795F11140
S1132590F8CFFAF4BB0F11F460FF1BC06F5F7F4FDD
S11325A08F4F9F4F16C0882311F096E911C07723EF
S11325B021F09EE8872F762F05C0662371F096E8F8
S11325C0862F70E060E02AF09A95660F771F881FC7
S11325D0DAF7880F9695879597F9089597F99F6785
S11325E080E870E060E008959FEF80EC0895002497
S11325F00A941616170618060906089500240A9464
S113260012161306140605060895092E0394000CE9
S113261011F4882352F0BB0F40F4BF2B11F460FF78
S113262004C06F5F7F4F8F4F9F4F089557FD9058A1
S1132630440F551F59F05F3F71F04795880F97FB82
S1132640991F61F09F3F79F087950895121613063C
S11326501406551FF2CF4695F1DF08C0161617066B
S11326601806991FF1CF86957105610508940895A0
S1132670E894BB2766277727CB0197F908950E9432
S113268052130C9405130E94F71238F00E94FE12A4
S113269020F0952311F00C94EE120C94F4121124F2
S11326A00C9439130E94161370F3959FC1F3950F80
S11326B050E0551F629FF001729FBB27F00DB11DC2
S11326C0639FAA27F00DB11DAA1F649F6627B00D52
S11326D0A11D661F829F2227B00DA11D621F739F3B
S11326E0B00DA11D621F839FA00D611D221F749F49
S11326F03327A00D611D231F849F600D211D822F90
S1132700762F6A2F11249F5750409AF0F1F08823B6
S11327104AF0EE0FFF1FBB1F661F771F881F9150E3
S11327205040A9F79E3F510580F00C94EE120C9492
S113273039135F3FE4F3983ED4F386957795679514
S1132740B795F795E7959F5FC1F7FE2B880F911D0D
S11327509695879597F90895EE0FFF1F0590F491CC
S1132760E02D0994A29FB001B39FC001A39F700DF7
S1132770811D1124911DB29F700D811D1124911D85
S113278008950E94B213A59F900DB49F900DA49F2D
S10F2790800D911D11240895F894FFCFD2
S9030000FC
