S00C0000424C34392E737265631D
S11300000C943E000C9450000C9450000C9450003E
S11300100C9450000C9450000C9450000C9450001C
S11300200C9450000C9450000C9450000C9450000C
S11300300C9450000C9450000C9450000C945000FC
S11300400C9450000C9450000C9450000C945000EC
S11300500C9450000C9450000C9450000C945000DC
S11300600C9450000C9450000C9450000C945000CC
S11300700C9450000C9450000C94500011241FBE9A
S1130080CFEFD8E0DEBFCDBF21E0A0E0B1E001C0FA
S11300901D92A930B207E1F70E9451020C9461034A
S11300A00C940000CF93DF93CDB7DEB78BE790E0DD
S11300B02BE730E0F90120812062FC0120838CE7EA
S11300C090E020E4FC0120838AE790E02AE730E016
S11300D0F90120812768FC0120830000DF91CF9182
S11300E00895CF93DF93CDB7DEB78CE790E025E496
S11300F0FC0120838AE790E02AE730E0F9012081BF
S11301002064FC01208300008AE790E0FC018081E8
S1130110882F90E080749927892BB1F788E790E0C5
S1130120FC0180819181DF91CF910895CF93DF937A
S1130130CDB7DEB78CE790E023E4FC0120838AE7A7
S113014090E02AE730E0F90120812064FC0120835B
S113015000008AE790E0FC018081882F90E08074A1
S11301609927892BB1F788E790E0FC018081918180
S1130170DF91CF910895CF93DF93CDB7DEB78CE7AE
S113018090E028E4FC0120838AE790E02AE730E04D
S1130190F90120812064FC01208300008AE790E0BB
S11301A0FC018081882F90E080749927892BB1F716
S11301B088E790E0FC0180819181DF91CF910895DF
S11301C0CF93DF93CDB7DEB78CE790E029E4FC0151
S11301D020838AE790E02AE730E0F9012081206457
S11301E0FC01208300008AE790E0FC018081882FD5
S11301F090E080749927892BB1F788E790E0FC019F
S113020080819181DF91CF910895CF93DF9300D0C6
S11302101F92CDB7DEB719821DC08DEE90E0298103
S11302202295207FFC0120838EEE90E09B838A83BD
S113023009C08A819B81FC0110828A819B8101967D
S11302409B838A838A819B81883F910590F389816E
S11302508F5F89838981863000F300000F900F90AF
S11302600F90DF91CF910895CF93DF931F92CDB775
S1130270DEB7898388ED90E021E0FC01208382EEE3
S113028090E026E0FC01208383EE90E024E0FC0172
S1130290208384EE90E023E1FC01208381E00F9031
S11302A0DF91CF910895CF93DF931F92CDB7DEB73F
S11302B0898389810E943401882311F480E00CC071
S11302C00E94050188ED90E028ED30E0F9012081DD
S11302D02260FC01208381E00F90DF91CF9108958B
S11302E0CF93DF93CDB7DEB781E690E020E8FC0141
S11302F0208381E690E0FC01108284E290E024E215
S113030030E0F90120812866FC01208385E290E039
S113031025E230E0F90120812F7DFC01208385E274
S113032090E025E230E0F90120812F7BFC0120835D
S113033085E290E025E230E0F9012081277FFC018D
S1130340208384E290E024E230E0F90120812268F5
S1130350FC0120838AE290E02AE230E0F901208166
S11303602062FC0120838BE290E02BE230E0F90173
S113037020812062FC01208387E290E027E230E0C4
S1130380F90120812260FC0120830000DF91CF91DC
S11303900895CF93DF93CDB7DEB780E098E40E9451
S11303A0DC02DF91CF910895CF93DF93CDB7DEB711
S11303B080E098E70E94DC02DF91CF910895CF930B
S11303C0DF93CDB7DEB780E990E023E0FC01208322
S11303D00000DF91CF910895CF93DF9300D000D038
S11303E000D0CDB7DEB79A8389837C836B835E8329
S11303F04D832D813E8189819A818217930748F428
S11304002D813E818B819C812817390710F481E06E
S113041001C080E026960FB6F894DEBF0FBECDBFB4
S1130420DF91CF910895CF93DF9300D0CDB7DEB79E
S11304309A8389830E94BB009C0189819A81FC0173
S1130440318320830E94E0009C0189819A81FC0110
S1130450338322830E9471009C0189819A81FC016B
S1130460358324830E9496009C0189819A81FC0132
S11304703783268389819A81FC0184819581AC012B
S113048060EB72E084EC91E00E94EC01282F8981FA
S11304909A81FC01208700000F900F90DF91CF918B
S11304A00895CF93DF9300D0CDB7DEB70E947001DB
S11304B081E00E94530182E390E00E9429030E949C
S11304C052000E94DF010E94CB020E9483027894B2
S11304D085E290E025E230E0F901308120E2232733
S11304E0FC01208380E091E00E9413020E94C90174
S11304F09A8389830E94D4019A83898388EC90E04B
S11305000E942903E5CFCF93DF93CDB7DEB780E810
S113051090E020E830E0F90120812362FC0120838F
S113052081E890E021E830E0F90120812B60FC01B2
S113053020838FEF91E00E94A1020000DF91CF9110
S11305400895CF93DF9300D0CDB7DEB79A83898324
S11305508AE890E029813A81FC01318320830000FC
S11305600F900F90DF91CF910895CF93DF9300D038
S1130570CDB7DEB789836A838981882F90E0382FCD
S113058022278A81882F90E0822B932B0F900F9043
S1130590DF91CF910895CF93DF93CDB7DEB78CE48D
S11305A090E02CE430E0F90120812765FC012083F0
S11305B00000DF91CF910895CF93DF9300D000D056
S11305C0CDB7DEB79C838B838BE290E02BE230E0E7
S11305D0F90120812F7DFC0120838EE490E02B81A2
S11305E03C81232F3327FC01208300008DE490E01D
S11305F0FC0180818823D4F78EE490E0FC018081A3
S1130600898389818F7389838EE490E02B81FC0137
S1130610208300008DE490E0FC0180818823D4F7DE
S11306208EE490E0FC0180818A838BE290E02BE2EF
S113063030E0F90120812062FC0120836A818981F4
S11306400E94B5020F900F900F900F90DF91CF9101
S11306500895CF93DF9300D0CDB7DEB79A83898313
S113066086E490E026E0FC01208385E490E025E424
S113067030E0F90120812360FC012083000085E340
S113068090E0FC018081882F90E081709927892B6C
S1130690B1F385E390E025E330E0F90120812160A6
S11306A0FC01208389819A8101979A8389838981B6
S11306B09A81892BA9F600000F900F90DF91CF91BA
S10906C00895F894FFCF39
S9030000FC
