S00C0000424C34392E737265631D
S11300000C9449000C9453000C9453000C9453002A
S11300100C9453000C9453000C9453000C94530010
S11300200C9453000C9453000C9453000C94530000
S11300300C9453000C9453000C9453000C945300F0
S11300400C9453000C9453000C9453000C945300E0
S11300500C9453000C9453000C9453000C945300D0
S11300600C9453000C9453000C9453000C945300C0
S11300700C9453000C9453000C94530005017C0120
S1130080EB014C028702CC0215039B032B04CB0427
S1130090190511241FBECFEFD8E0DEBFCDBF0E94EB
S11300A076060C94C8060C94000080E00DC0982FCE
S11300B09295907F9093ED00EEEEF0E001C01192E6
S11300C0E83FF105E0F38F5F863088F308952091CF
S11300D0ED0080E00DC0982F9295907F9093ED00F5
S11300E09091EF00907C19F42093ED0008958F5FB8
S11300F0863088F32093ED008FEF08958091EF0010
S1130100807C69F09091EE00892F807E803241F0EE
S1130110803431F0803A21F0892F8F7108958FEF68
S11301200895BC0190E007C0FB01E90FF11D209187
S1130130FA0020839F5F492F50E02091EF002F7039
S113014030E04217530784F3089581E08093D80088
S113015086E08093E20084E08093E30083E180936F
S1130160E40081E008950E94A500882341F00E94E4
S11301705500E8EDF0E080818260808381E008959D
S11301800F931F93CF93DF9300D000D0CDB7DEB78A
S1130190FC0181818C3099F48185803669F48081F9
S11301A08295807F8093ED00AFEEB0E08C918F73E9
S11301B08C931092EE001082118680E0E8C48F01C7
S11301C00E9467008F3F09F4DDC490E6D8011996B8
S11301D09C9319978C938295807F8093ED00EEEE2B
S11301E0F0E001C01192E83FF105E0F3D801119667
S11301F0EC918E2F90E0FC013197EB30F10508F083
S1130200BDC4E25CFF4F0C94C206F80183858823C9
S113021071F195818481990F990F990F8295869533
S11302208770890F8093F30094818381990F990FCC
S1130230990F829586958770890F8093F200938138
S11302408281990F990F990F829586958770890FEE
S11302508093F1008281880F880F880F8093F000CB
S1130260EFEEF0E080818061808380E023C09381A1
S11302708281869586958695B0E29B9F800D112498
S11302808093F300F80182818295880F807E8093A9
S1130290F200EFEEF0E080818F7E8083E6CFD8011C
S11302A01796ED91FC911897E80FF11D90819093AA
S11302B0FA008F5FF8019681891788F38285882375
S11302C031F0E0EFF0E080818460808305C0E0EFEE
S11302D0F0E080818B7F8083EFEEF0E09081D801A5
S11302E016968C91892B808380818F738083808183
S11302F08064808380E04BC4F8018385882371F196
S113030095818481990F990F990F829586958770AD
S1130310890F8093F30094818381990F990F990F2A
S1130320829586958770890F8093F20093818281EC
S1130330990F990F990F829586958770890F8093ED
S1130340F1008281880F880F880F8093F000EFEE10
S1130350F0E080818061808380E023C0938182818A
S1130360869586958695B0E29B9F800D1124809397
S1130370F300F80182818295880F807E8093F200D9
S1130380EFEEF0E080818F7E8083E6CFD801179670
S1130390ED91FC911897E80FF11D90819093FA006C
S11303A08F5FF8019681891788F31286E0EFF0E0F9
S11303B080818B7F8083EFEEF0E09081D8011696E8
S11303C08C91892B808380818F738083808180646A
S11303D0808380E0DCC3F8018385882369F19581FB
S11303E08481990F990F990F829586958770890F4B
S11303F08093F30094818381990F990F990F8295CB
S113040086958770890F8093F20093818281990F7A
S1130410990F990F829586958770890F8093F100C3
S11304208281880F880F880F8093F000EFEEF0E050
S113043080818061808317C09381828186958695AF
S11304408695B0E29B9F800D11248093F300F80100
S113045082818295880F807E8093F200EFEEF0E037
S113046080818F7E808381E0D8011A968C931A97BD
S1130470E0EFF0E0808184608083EFEEF0E0908133
S113048016968C91892B808380818F7380838081E1
S11304908064808380E07BC319821A821B821C8261
S11304A01092F7009B818A81990F990F990F829579
S11304B086958770890F8093F6009A818981990FB8
S11304C0990F990F829586958770890F8093F5000F
S11304D08981880F880F880F24EF30E0F901808329
S11304E0EFEEF0E09081D80116968C91892B8083F1
S11304F0D9018C918B7F8C938C918E7F8C9380818E
S11305008F73808380818068808380E040C31982F8
S11305101A821B821C821092F7009B818A81990F98
S1130520990F990F829586958770890F8093F600AD
S11305309A818981990F990F990F82958695877071
S1130540890F8093F5008981880F880F880F44EF05
S113055050E0FA018083EFEEF0E09081D801169626
S11305608C911697892B80831A961C92DA018C91B0
S113057084608C9320EF30E0D9018C918B7F8C9335
S1130580DA018C918E7F8C9380818F73808380813C
S11305908068808380E0FBC219821A821B821C82DD
S11305A01092F7009B818A81990F990F990F829578
S11305B086958770890F8093F6009A818981990FB7
S11305C0990F990F829586958770890F8093F5000E
S11305D08981880F880F880F44EF50E0FA018083E7
S11305E0EFEEF0E09081D80116968C911697892B46
S11305F0808381E01A968C93DA018C9184608C93C9
S113060020EF30E0D9018C9184608C9380818F7DC0
S11306108083DA018C918E7F8C9380818F738083A9
S113062080818068808380E0B2C2F801838588235A
S113063069F195818481990F990F990F8295869517
S11306408770890F8093F30094818381990F990FA8
S1130650990F829586958770890F8093F200938114
S11306608281990F990F990F829586958770890FCA
S11306708093F1008281880F880F880F8093F000A7
S1130680EFEEF0E080818061808317C093818281E6
S1130690869586958695B0E29B9F800D1124809364
S11306A0F300F80182818295880F807E8093F200A6
S11306B0EFEEF0E080818F7E80838FEF9FEFDC018F
S11306C089839A83AB83BC838093F7009B818A815F
S11306D0990F990F990F829586958770890F80934A
S11306E0F6009A818981990F990F990F82958695C1
S11306F08770890F8093F5008981880F880F880F90
S113070024EF30E0D9018C93EFEEF0E09081D80132
S113071016968C91892B8083D9018C918B7F8C9335
S11307208C9181608C9380818F73808380818068B9
S1130730808380E02CC2F8018385882369F1958148
S11307408481990F990F990F829586958770890FE7
S11307508093F30094818381990F990F990F829567
S113076086958770890F8093F20093818281990F17
S1130770990F990F829586958770890F8093F10060
S11307808281880F880F880F8093F000EFEEF0E0ED
S113079080818061808317C093818281869586954C
S11307A08695B0E29B9F800D11248093F300F8019D
S11307B082818295880F807E8093F200EFEEF0E0D4
S11307C080818F7E80838FEF9FEFDC0189839A8302
S11307D0AB83BC838093F7009B818A81990F990F27
S11307E0990F829586958770890F8093F6009A8178
S11307F08981990F990F990F829586958770890F32
S11308008093F5008981880F880F880F44EF50E0AA
S1130810DA018C93EFEEF0E09081D80116968C917A
S11308201697892B80831A961C92DA018C91846026
S11308308C9320EF30E0D9018C918B7F8C93DA017B
S11308408C9181608C9380818F7380838081806898
S1130850808380E09CC1F8018385882369F19581B8
S11308608481990F990F990F829586958770890FC6
S11308708093F30094818381990F990F990F829546
S113088086958770890F8093F20093818281990FF6
S1130890990F990F829586958770890F8093F1003F
S11308A08281880F880F880F8093F000EFEEF0E0CC
S11308B080818061808317C093818281869586952B
S11308C08695B0E29B9F800D11248093F300F8017C
S11308D082818295880F807E8093F200EFEEF0E0B3
S11308E080818F7E80838FEF9FEFDC0189839A83E1
S11308F0AB83BC838093F7009B818A81990F990F06
S1130900990F829586958770890F8093F6009A8156
S11309108981990F990F990F829586958770890F10
S11309208093F5008981880F880F880F44EF50E089
S1130930DA018C93EFEEF0E09081D80116968C9159
S11309401697892B808381E01A968C93DA018C9117
S113095084608C9320EF30E0D9018C9184608C9377
S113096080818F7D8083DA018C9181608C9380817A
S11309708F73808380818068808380E008C1D80180
S11309801796ED91FC911897E80FF11D90819093C3
S1130990FA008F5F01C080E0F8019681891778F32F
S11309A019821A821B821C821092F7009B818A8111
S11309B0990F990F990F829586958770890F809367
S11309C0F6009A818981990F990F990F82958695DE
S11309D08770890F8093F5008981880F880F880FAD
S11309E044EF50E0DA018C93EFEEF0E09081D8010F
S11309F016968C911697892B808381E01A968C9396
S1130A00DA018C9184608C9320EF30E0D9018C91D1
S1130A1084608C93808180628083DA018C918E7FE4
S1130A208C9380818F73808380818068808380E051
S1130A30AEC0F8018385882371F195818481990F73
S1130A40990F990F829586958770890F8093F3008B
S1130A5094818381990F990F990F82958695877058
S1130A60890F8093F20093818281990F990F990FD6
S1130A70829586958770890F8093F1008281880F13
S1130A80880F880F8093F000EFEEF0E080818061A2
S1130A90808380E023C093818281869586958695A4
S1130AA0B0E29B9F800D11248093F300F8018281B2
S1130AB08295880F807E8093F200EFEEF0E08081D3
S1130AC08F7E8083E6CFD8011796ED91FC9118971D
S1130AD0E80FF11D90819093FA008F5FF8019681E1
S1130AE0891788F38FEF9FEFDC0189839A83AB83A7
S1130AF0BC838093F7009B818A81990F990F990F8A
S1130B00829586958770890F8093F6009A818981F2
S1130B10990F990F990F829586958770890F809305
S1130B20F5008981880F880F880F44EF50E0DA01BF
S1130B308C93EFEEF0E09081D80116968C91169785
S1130B40892B808381E01A968C93DA018C918460DE
S1130B508C9320EF30E0D9018C9184608C93808158
S1130B6080628083DA018C9181608C9380818F73A1
S1130B70808380818068808380E009C0F8011186C9
S1130B8080E005C08FE1D80119968C938FEF0F9008
S1130B900F900F900F90DF91CF911F910F910895B7
S1130BA01F93CF93DF93FC019185992309F48CC0A3
S1130BB09F3109F48BC09F3F09F48AC0EF01808103
S1130BC08295807F8093ED000E947E00182F8032F2
S1130BD059F020F4882309F47DC06CC0803409F4F2
S1130BE05FC0803A09F066C08091EF008F708E83F9
S1130BF08F8198850E9491009091F00081E092FF8E
S1130C0080E08A878091EF0084FF2DC081E08B878C
S1130C10E3EFF0E080818695869586958D83A2EF3B
S1130C20B0E08C91908186958695869520E2929F7E
S1130C30800D11248C83E1EFF0E080819C918695F6
S1130C408695869520E2929F800D11248B83809156
S1130C50F000908186958695869520E2929F800D7E
S1130C6011248A8313C01B86E3EFF0E08081829510
S1130C70869587708B839091F200808192959695EA
S1130C809770880F880F880F890F8A831987EFEE72
S1130C90F0E080818F7380831092EE0080E01BC0AF
S1130CA08987EFEEF0E080818F7380831092EE00ED
S1130CB080E011C01987EFEEF0E080818F738083AC
S1130CC01092EE0082E007C082E005C082E003C01B
S1130CD082E001C081E0DF91CF911F91089584B13A
S1130CE0806684B985B18F7985B90895CF93DF93F0
S1130CF0CDB7DEB764970FB6F894DEBF0FBECDBF95
S1130D000E946F0680E00E94B300789480E891E02E
S1130D10A0E0B0E08B879C87AD87BE8788E08F8793
S1130D2081E08A8781EF898382EF8A8383EF8B83D3
S1130D3084EF8C83CE010196998B888BCE01099622
S1130D400E94C0008111FACFCE0109960E94D005FD
S1130D508130D1F395B180E2892785B98AE090E0AA
S1130D600E94B306EBCF9C0186E086BD95B59360E7
S1130D7095BDA89BFECF95B3916095BB21503109D9
S1130D8099F70895EE0FFF1F0590F491E02D099453
S1070D90F894FFCF01
S9030000FC
